:100000000C9438050C947F050C947F050C947F05A7
:100010000C947F050C947F050C947F050C947F0550
:100020000C947F050C947F050C94252D0C94F72DD2
:100030000C9443230C947F050C947F050C947F054E
:100040000C947F050C947F050C947F050C947F0520
:100050000C947F050C94AB230C947F050C947F05C6
:100060000C947F050C947F050C947F050C947F0500
:100070000C947F050C947F050C947F050C947F05F0
:100080000C947F050C947F050C947F050C947F05E0
:100090000C947F050C947F050C947F050C947F05D0
:1000A0000C947F050C947F050C947F05A507A7078A
:1000B000B207A907AB07AD07AF07B107B407B6078B
:1000C000B807C307BA07BC07BE07C007C207C50702
:1000D000EF18EF18211921195F197F19081B081B48
:1000E000C119081B621A621AD41ADD1A081B011BF7
:1000F0006F1A6F1A6F1A6F1A6F1A6F1A6F1A6F1AB8
:100100006F1A6F1A6F1A6F1A6F1A6F1A6F1A6F1AA7
:10011000801A8E1A951A9C1AA61A971B971BA91B50
:10012000A91BA01BA91BA91BA91B971B971BA51BE0
:10013000A91BA91BA51B642E8B2E7D2F8B2E7D2F1B
:10014000D72EFA2E7D2F502F5F2F29001E001F0063
:100150002000210022002300240025002600270083
:100160002D002E0000002A004A002B000000140081
:100170001A000800150017001C0018000C001200DF
:1001800013002F00300032004B0039000000040043
:100190001600070009000A000B000D000E000F00FA
:1001A00033003400280000004E00E10064001D0010
:1001B0001B00060019000500110010003600370072
:1001C00038000000E50052004D00E000E3000000B0
:1001D000E200000000002C00000000000000E00031
:1001E00001510000500051004F0000003A003B0058
:1001F0003C003D003E003F00400041004200430003
:100200004400450000000000000000000000000065
:1002100000000000000000000000000000000000DE
:1002200000000000000000000000000000000000CE
:1002300000000000000000000000000000000000BE
:1002400000000000000000000000000000000000AE
:10025000000000000000000000000000000000009E
:10026000000000000000000000000000000000008E
:10027000000000000000000000000000000000007E
:100280000100000000000000000044454255473ACC
:100290002064697361626C65642E0A0044454255AE
:1002A000473A20656E61626C65642E0A000A00257B
:1002B00030313662003A200025303258000A722F61
:1002C0006320303132333435363738394142434494
:1002D00045460A007267626C696768742074696DCC
:1002E00065722064697361626C652E0A00726762D0
:1002F0006C696768742074696D657220656E6162EF
:100300006C65642E0A007267626C6967687420739A
:10031000657420687376205B4E4F454550524F4DB3
:100320005D3A2025752C25752C25750A00726762AB
:100330006C696768742073657420687376205B4508
:100340004550524F4D5D3A2025752C25752C25754D
:100350000A007267626C69676874207261696E6214
:100360006F7720736574206873763A2025642C2596
:10037000642C25642C25750A007267626C696768B5
:10038000742064697361626C65205B454550524F0F
:100390004D5D3A207267626C696768745F636F6E67
:1003A0006669672E656E61626C65203D2025750A61
:1003B000007267626C6967687420656E61626C6563
:1003C000205B454550524F4D5D3A207267626C6923
:1003D0006768745F636F6E6669672E656E61626CD5
:1003E00065203D2025750A007267626C6967687434
:1003F00020746F67676C65205B454550524F4D5DBB
:100400003A207267626C696768745F636F6E6669D1
:10041000672E656E61626C65203D2025750A00724D
:1004200067626C69676874206D6F6465205B4E4F0E
:10043000454550524F4D5D3A2025750A007267625E
:100440006C69676874206D6F6465205B4545505228
:100450004F4D5D3A2025750A007267626C696768C6
:10046000745F696E6974207267626C696768745F33
:10047000636F6E6669672E6D6F6465203D20302E58
:100480002057726974652064656661756C742076A6
:10049000616C75657320746F20454550524F4D2E29
:1004A0000A007267626C696768745F696E697420BC
:1004B0006565636F6E666967206973206E6F74206F
:1004C000656E61626C65642E0A007267626C6967B2
:1004D00068745F696E6974207374617274210A00B4
:1004E0007267626C696768745F696E6974206361C2
:1004F0006C6C65642E0A007267626C696768745F71
:10050000636F6E6669672E7370656564203D202594
:10051000640A007267626C696768745F636F6E6615
:1005200069672E76616C203D2025640A007267623F
:100530006C696768745F636F6E6669672E73617458
:10054000203D2025640A007267626C696768745FE9
:10055000636F6E6669672E687565203D2025640AA5
:10056000007267686C696768745F636F6E6669675D
:100570002E6D6F6465203D2025640A007267626CF1
:10058000696768745F636F6E6669672E656E616226
:100590006C65203D2025640A007267626C6967689B
:1005A000745F636F6E666967206570726F6D0A00B5
:1005B00000047F3F1F643214643214783C1E1E1402
:1005C0000A052223252628292A2C2D2F30323335BF
:1005D00036383A3B3D3E4042434547494A4C4E50EF
:1005E00051535557595A5C5E6062646668696B6D19
:1005F0006F71737577797B7D7F81838587898A8C1D
:100600008E90929496989A9C9E9FA1A3A5A7A8AA23
:10061000ACAEAFB1B3B4B6B8B9BBBCBEBFC1C2C358
:10062000C5C6C7C9CACBCCCDCED0D1D2D2D3D4D5F2
:10063000D6D7D7D8D9D9DADADBDBDBDCDCDCDCDC1B
:10064000DDDDDDDDDCDCDCDCDCDBDBDBDADAD9D9F3
:10065000D8D7D7D6D5D4D3D2D2D1D0CECDCCCBCA81
:10066000C9C7C6C5C3C2C1BFBEBCBBB9B8B6B4B3A7
:10067000B1AFAEACAAA8A7A5A3A19F9E9C9A98963D
:100680009492908E8C8A89878583817F7D7B797710
:100690007573716F6D6B6968666462605E5C5A59F0
:1006A00057555351504E4C4A4947454342403E3DB1
:1006B0003B3A3836353332302F2D2C2A292826253F
:1006C0002322FFAA7F554000000000000000000028
:1006D0000001010101010101010102020202020205
:1006E00002020303030303030304040404040505D3
:1006F0000505050606060606070707070808080891
:100700000909090A0A0A0B0B0B0C0C0C0D0D0D0E36
:100710000E0E0F0F101010111112121313141415C6
:100720001516161717181819191A1A1B1C1C1D1D37
:100730001E1F1F2021212223232425252627282888
:10074000292A2B2C2C2D2E2F3031313233343536B3
:100750003738393A3B3C3D3E3F40414243444546B1
:100760004748494B4C4D4E4F50525354555758598A
:100770005A5C5D5E606163646567686A6B6C6E6F2E
:100780007172747677797A7C7D7F8182848687899D
:100790008B8D8E9092949597999B9D9FA1A2A4A6D4
:1007A000A8AAACAEB0B2B4B6B9BBBDBFC1C3C5C8D0
:1007B000CACCCED0D3D5D7DADCDEE1E3E6E8EAED89
:1007C000EFF2F4F7F9FCFF0A002530325820006BF5
:1007D0006579626F6172645F7265706F72743A20DE
:1007E000000A0025303258006B6579626F617264CF
:1007F0005F7365745F6C65643A2000290A00257593
:10080000002F002575005D28002564002000256468
:1008100000200025640020002564007C0025303283
:1008200058006D6F7573656B6579205B62746E7CC3
:10083000782079207620685D287265702F61636C5E
:10084000293A205B006261636B6C6967687420738E
:100850007465703A2025750A006261636B6C696784
:1008600068742064697361626C650A006261636B1D
:100870006C6967687420656E61626C650A0062610C
:10088000636B6C6967687420746F67676C653A2086
:1008900025750A006261636B6C6967687420646522
:1008A0006372656173653A2025750A006261636B46
:1008B0006C6967687420696E6372656173653A205C
:1008C00025750A005B735D004B6579626F61726428
:1008D0002073746172742E0A005B575D005B535D78
:1008E000005B525D005B445D005B435D00040330D0
:1008F00000000010034B0042004400360037007631
:10090000003200000010034B00420044004600612A
:10091000006E00730000000403090409025B000379
:100920000100A0FA090400000103010100092111DE
:100930000100012240000705810308000A090401A3
:1009400000010300000009211101000122850007B8
:1009500005820320000A09040200020300000009C6
:100960002111010001222200070583032000010755
:100970000503032000011201100100000008EDFE34
:1009800060600100010203010631FF0974A1010941
:1009900075150026FF00952075088102097615005F
:1009A00026FF00952075089102C005010902A101EA
:1009B00085020901A1000509190129051500250174
:1009C00095057501810295017503810105010930C5
:1009D00009311581257F9502750881060938158131
:1009E000257F950175088106050C0A3802158125B9
:1009F0007F950175088106C0C005010980A10185A8
:100A0000031601002603001A81002A830075109541
:100A1000018100C0050C0901A10185041601002611
:100A20009C021A01002A9C02751095018100C005E4
:100A3000010906A101050719E029E715002501951F
:100A400008750181029501750881010508190129C0
:100A50000595057501910295017503910105071929
:100A60000029FF150026FF00950675088100C000CB
:100A700011241FBECFEFDAE0DEBFCDBF04B603FE08
:100A800027C08091930290919402A0919502B09119
:100A900096028730904BA740B04BD1F4109293024E
:100AA00010929402109295021092960214BE84B78E
:100AB000877F84BF0FB6F894A89580916000886105
:100AC00080936000109260000FBEE0E0F8E30995AB
:100AD00011E0A0E0B1E0EAE1F1E602C005900D927C
:100AE000AC36B107D9F722E0ACE6B1E001C01D9207
:100AF000A339B207E1F70E943E2A0C948B300C9484
:100B00000000FF93EF93E0916C01F0916D0130973D
:100B100009F00995EF91FF910895FC0185918030CE
:100B200011F0EFDFFBCF0895FF27E0E230E247FF4F
:100B30000CC0419597FF09C0EDE2609570958095D6
:100B40009095611D711D811D911D27FF02C021958A
:100B500030E350E2AA27660F771F881F991FAA1F4C
:100B6000A41710F0A41B63955A95A9F7AA3008F0B2
:100B7000A95FA05DAF93F39561157105810591059E
:100B800041F7ED3211F4EF93F395F21718F43F9318
:100B9000F395FBCF8F91B5DFFA95E1F70895E991D1
:100BA000F9918591803021F0853219F0AADFF9CFD3
:100BB000089520E0E89455915532C1F3503311F473
:100BC000689455915A3348F4505390F3220F022EF3
:100BD000220F220F200D250FF4CF0EF421958991BD
:100BE0009991533619F3533729F1533559F1BC0113
:100BF00088279927E8945C3621F489919991689423
:100C00005591543639F446EF7EF077FF0DC08FEFE3
:100C10009FEF0AC055374AE039F0583540E121F0DE
:100C2000523642E009F00895FF93EF937DDFEF9194
:100C3000FF91B7CFFF93EF93FC0181918030B9F31F
:100C400060DFFBCFFF93EF9368DFF1CFDF93CF93AC
:100C5000CDB7DEB72596A3DFCF91DF9108950C9431
:100C6000D50B0C94D60B0C9439060C94140781E028
:100C7000089581E008951F93CF93DF9300D000D0B3
:100C80001F92CDB7DEB749835A832091A80189818D
:100C90009A81211112C0662349F00E94BC20182FAE
:100CA000682F89819A810E94612003C00E94902050
:100CB000182F69817A81812F04C00E94BC2069812C
:100CC0007A810F900F900F900F900F90DF91CF913E
:100CD0001F910C942509FC0140815181628173812F
:100CE00084810C943B060E94710C8FE39CE9019770
:100CF000F1F700C000000E94710C80E00E94D70B49
:100D000080FF04C00E9421220C94D12308950C94EA
:100D10003106E82FE295EF70F0E032A1282F2F7016
:100D200081E090E001C0880F2A95EAF7809583233F
:100D300082A30895CF92DF92EF92FF92843030F435
:100D4000811105C0909180009F7704C083E090914D
:100D50008000906890938000282F30E0AFEFBFEFC5
:100D60000E941C3023E030E040E050E00E94F42F6D
:100D70002C3784E138074105510530F4C90169E099
:100D800070E00E94CC2F29C0DA01C9018A50974D2A
:100D9000AF4FBF4F6627782F892F9A2F25EF38E264
:100DA00041E050E00E94F42F69017A01CA01B901C3
:100DB0000E94B02F9B01AC01C701B6010E94B02F69
:100DC000BB27A92F982F872F009721E0A207B105F5
:100DD00011F0BC0102C06FEF7FEF70938900609348
:100DE0008800FF90EF90DF90CF900895259A85E3DB
:100DF0000E94890682E88093800089E180938100C7
:100E00008FEF9FEF90938700809386000C94B1261C
:100E10000E9473060E942722811102C00E94AA220A
:100E20000E94F6060C942F0608950C94350608953A
:100E30000E94871B0E9417072FEF84E39CE021503C
:100E400080409040E1F700C000000C94D1230F9344
:100E50001F93CF93DF93EC010E946B068C01BE01C0
:100E60000E943306882329F1BE01C8010E940115A2
:100E70008823F9F00A3C8CE51807E9F008F019C15D
:100E8000033C8CE51807F1F040F505318CE51807B7
:100E900008F0AEC002308CE51807B0F501158CE5FE
:100EA000180709F082C0CA81CC2309F4C4C10E948A
:100EB0001807C0E0C0C1CA81CC2309F4BCC10E949C
:100EC000C810F7CFCA81CC2309F4B5C10E943C21D8
:100ED0008272B9F00E94FB12ECCF063C8CE5180739
:100EE00009F4BBC008F0CBC0043C8CE5180709F03E
:100EF000BBC0CA81CC2309F49EC10E943C218272EE
:100F000049F30E94EE12D5CF8A81882309F450C09C
:100F10000E942722811102C00E94AA220E943A2226
:100F200090E09093840280938302F801E350FC45A3
:100F3000E231F10530F4EA5AFF4F809183020C94BC
:100F4000163080918302816027C0826025C0846052
:100F500023C0806121C080621FC080641DC0806882
:100F60001BC08460886018C08E7F16C08D7F14C03F
:100F70008B7F12C08F7E10C08F7D0EC08F7B0CC008
:100F80008F770AC08B7F877F07C087FB222720F9D6
:100F900091E0922790FB87F98093830280918302EE
:100FA0000E943E220E94871B84CF01301C4539F0ED
:100FB000CE01DF91CF911F910F910C943706CA811A
:100FC000CC2309F438C180912802C82FC095C17084
:100FD000C0FB80F980932802CC2329F08CE992E0B1
:100FE0000E948D0566CF8AE892E00E948D0523C19C
:100FF00006318CE5180731F50E943C21282F8A81A3
:101000004091100150911101882379F02A7A91E0E2
:1010100009F490E090936E01911102C069E201C061
:1010200065E3CA010E94DE220AC080916E0181112F
:1010300002C069E201C065E3CA010E94E0220E9489
:10104000882137CF023C1C4509F0B2CFCA81CC239E
:1010500009F4F1C00E94AE132CCFCA81CC2309F44D
:10106000EAC00E948C1025CF053C1C4509F0A0CF9A
:10107000CA81CC2309F4DFC00E947F101ACFCA8135
:10108000083C8CE5180731F4CC2309F4D4C00E9445
:10109000AA100FCF093C1C4530F4CC2309F4CBC077
:1010A0000E949B1006CFCC2309F4C5C00E94B91042
:1010B00000CF013D8CE5180779F4CA81CC2309F4EF
:1010C000BAC00E94B50E8F3028F00E94B50E843150
:1010D00008F417CF8FE00EC0023D8CE5180708F02A
:1010E00058C00D3C8CE5180741F4CA81CC2309F4A3
:1010F000A2C081E00E94FE12DCCE0E3C8CE51807F7
:10110000B0F40B3C8CE5180739F4CA81CC2309F400
:1011100092C00E94BD0ECDCE0C3C1C4509F048CFBC
:10112000CA81CC2309F487C00E94CE0EC2CECA81E8
:101130000F3C8CE5180771F4CC2309F47CC00E94A5
:10114000B50E863028F00E94B50E883008F4D9CE4E
:1011500086E0D0CF003D1C4570F4CC2309F46BC071
:101160000E94B50E823028F00E94B50E853008F43A
:10117000C8CE82E0BFCFCC2309F45DC00E94B50E7B
:10118000893028F00E94B50E8E3008F4BACE89E07E
:10119000B1CF053D8CE5180731F4CA81CC2309F4A1
:1011A0004AC083E2A7CF063D8CE5180730F5CA8117
:1011B000033D8CE5180721F4CC23E9F188E19ACFAF
:1011C000043D1C4568F4CC23B1F10E94B50E853175
:1011D00028F00E94B50E873108F493CE85E18ACFBE
:1011E000CC2349F10E94B50E893128F00E94B50E3A
:1011F000823208F486CE89E17DCF0D3D8CE518075B
:1012000039F4CA81CC23B9F082E00E94E82A51CE99
:101210000E3D8CE5180731F4CA81CC2361F00E94A1
:10122000AA2247CE0C3D1C4509F0C2CECA81CC2370
:1012300011F080E0EACF8C2FDF91CF911F910F91B9
:10124000089580E090E008950895E72FF0E095E09C
:10125000899FE00DF11D112484E0EE0FFF1F8A9598
:10126000E1F7E60FF11DEE0FFF1FE65BFE4F8591E4
:1012700094910895880F991FFC01E355FD4F8591C6
:1012800094910895CF93DF930E9425090E94350B16
:10129000EC01811521E5920708F042C0811560E557
:1012A000960708F031C1883E910500F5803E910512
:1012B00008F0D7C1883A910570F4853A910508F095
:1012C000A6C08130910509F4CCC108F47DC1049712
:1012D00008F0C7C179C18F3B910508F4A3C0803CD9
:1012E000910508F471C1805C9109FDC0C11580E3CE
:1012F000D80780F4C11590E2D90708F0F2C0C03FCA
:10130000D10508F461C1CF3FD10511F008F0A9C1A2
:10131000D065A7C1C11520E4D20708F0F2C0E7C02C
:10132000811569E5960760F5C11588E5D80708F0CD
:1013300037C1C11594E5D90778F4C11523E5D20763
:1013400008F013C1C11562E5D60708F0F8C0DC2F1C
:10135000CC27C16FD06A85C1C11585E5D80708F4CF
:101360001AC1C11596E5D90708F02EC18C2F0E942D
:10137000B20B8F71C82FD0E0DC2FCC27D06271C1A7
:101380008D3B2CE5920709F416C1F0F4CB3B8CE5BC
:10139000D80709F40AC108F00BC1C1152AE5D20724
:1013A00008F012C18C2F8F700E94B20B94E0D6957A
:1013B000C7959A95E1F7CF70D0E0DC2FCC27D06AA3
:1013C0008F70806EC82B4DC1803C9C4509F4F9C0DC
:1013D000C13C8CE5D80760F4CE3B9CE5D90709F405
:1013E000EDC0CF3BDC4509F0EFC0C0E0D2ED39C124
:1013F000CE0190568115904208F0E6C08D2F8F7176
:101400000E94B20BDD27D0628F71D82B2AC1853A9A
:10141000910509F4DCC0863A910509F0DBC0C2E809
:10142000D0E41FC1883A910509F4D7C0893A9105E3
:1014300009F4D6C08A3A910509F4D5C08B3A9105D2
:1014400009F4D4C08C3A910509F4D3C08B3B9105C3
:1014500009F4D2C08C3B910509F4D1C08D3A9105B5
:1014600009F4D0C0803B910509F4CFC08E3A9105B4
:1014700009F4CEC08F3A910509F4CDC0813B9105A6
:1014800009F4CCC0823B910509F4CBC0833B9105A4
:1014900009F4CAC0843B910509F4C9C0853B910594
:1014A00009F4C8C0863B910509F4C7C0873B910584
:1014B00009F4C6C0883B910509F4C5C0893B910574
:1014C00009F4C4C08D3B910509F4C3C08E3B91055E
:1014D00009F4C2C08A3B910509F4C1C0C0E0D4E45C
:1014E000C0C0CE019F700E943A09EC01BAC0CE0183
:1014F0009927D3FF03C0EC01D86CB3C0EC01D06CCA
:10150000B0C0DF70D06AADC0837021E030E002C0AF
:10151000220F331F8A95E2F73C68CE0174E096955E
:1015200087957A95E1F78370382BCF70C695C6956D
:1015300080E2C89FE0011124C22BD32B92C04C2F14
:101540004695469590E2499FA0011124C370DD277E
:1015500021E030E0C90102C0880F991FCA95E2F767
:10156000EC01C42BD52BDC687CC04C2F46954695EE
:1015700080E2489FA0011124C370DD2721E030E004
:10158000C90102C0880F991FCA95E2F7EC01C42B6C
:10159000D52BDA6866C0DC2FCC27C46FD06A61C057
:1015A000DC2FCC27C06FD06A5CC0C0E0D4ED59C03E
:1015B000C0E0D5ED56C0C0E0D1ED53C0C0E0D0EDE5
:1015C00050C0C0E0D3ED4DC0C0E0D0E04AC0C1E89B
:1015D000D0E447C0C3E8D0E444C0C2EED4E441C084
:1015E000C9EED4E43EC0CAEED4E43BC0C5EBD4E4BB
:1015F00038C0C6EBD4E435C0C3EBD4E432C0C4EB8E
:10160000D4E42FC0C7EBD4E42CC0CCECD4E429C084
:10161000CDECD4E426C0C3E8D5E423C0CAE8D5E4C1
:1016200020C0C2E9D5E41DC0C4E9D5E41AC0C1E2B6
:10163000D6E417C0C3E2D6E414C0C4E2D6E411C0B5
:10164000C5E2D6E40EC0C6E2D6E40BC0C7E2D6E4DB
:1016500008C0CFE6D4E405C0C0E7D4E402C0CAE2C3
:10166000D6E4CE01DF91CF9108958238910549F1FA
:10167000B0F48133910509F458C048F489329105DA
:1016800009F44EC08A32910509F454C00895853397
:10169000910509F440C08933910599F00895833E7E
:1016A000910529F138F4803E910591F0823E910533
:1016B000A1F00895863E9105F9F0873E910531F13C
:1016C00008952091830220FD3AC021FD38C008957D
:1016D0008091830280FD35C032C08091830282FFF9
:1016E00032C08091830284FD30C083EE39C0809186
:1016F000830282FD28C0F5CF8091830283FF27C03B
:101700008091830284FD21C087EE2AC080918302EC
:1017100083FD1DC0F5CF8091830285FD1AC01BC0DB
:101720008091830285FD17C014C08091830286FDDD
:1017300014C015C08091830286FD11C00EC080EEDA
:101740000FC089E30DC082EE0BC080E009C086EEB9
:1017500007C089E205C085E303C08AE201C081E3D6
:1017600090E008959091830292FF0DC0282F287178
:10177000283019F4877F846006C0282F2471243014
:1017800011F48B7F886093FF0DC0282F28712831BA
:1017900019F4877E846106C0282F2471243111F446
:1017A0008B7E886194FD877E089508950895E82FC3
:1017B000F0E0EE0FFF1FE159FE4F80819181089507
:1017C000CF92DF92EF92FF920F931F93CF93DF930D
:1017D0008DEB92E00E948D058FE6E82E81E0F82ED9
:1017E000C0E0D0E098EBC92E92E0D92E0FEA12E0CB
:1017F000DF93CF93DF92CF920E94260685EB92E093
:101800000E948D05F701819191917F010E9407222D
:101810009F938F931F930F930E9426068DEA92E069
:101820000E948D0521968DB79EB708960FB6F89445
:101830009EBF0FBE8DBFC530D105D1F6DF91CF91D0
:101840001F910F91FF90EF90DF90CF900895E3E309
:10185000F1E041E050E025E02E0F9191A92FA295F3
:10186000AF70B0E091963C9191979F70BA0102C021
:10187000660F771F9A95E2F7CB01809583239196A7
:101880008C932E13EACFA3E2B1E041E050E020E1D7
:101890002A0F8D91E82FE295EF70F0E031A18F7063
:1018A000BA0102C0660F771F8A95E2F7CB01962F27
:1018B0009095932391A392A1892B82A32A13E9CF18
:1018C000E9E7F1E0AFE6B1E0119211921D921D92AD
:1018D00071E0E338F707C1F785E00E94080D0C942A
:1018E00008075F926F927F928F929F92AF92BF9202
:1018F000CF92DF92EF92FF920F931F93CF93DF93DC
:1019000003E311E0A9E7B1E0612CEE24E394F12CAC
:101910005D018D909C90119711961C921E92E8018A
:1019200089918E01E82FE295EF70F0E091A18F7020
:10193000A70101C0440F8A95EAF7892F842B81A360
:1019400082A1542E5094852182A3D0EADA95F1F732
:1019500083E2C82E81E0D82E80E090E0E601799005
:101960006E01272D22952F7030E0E90168A12D919D
:101970003C91119770E0D72DDF7002C07595679587
:10198000DA95E2F760FD08C0B701082E02C0660FC5
:10199000771F0A94E2F702C060E070E0262B372B35
:1019A00011963C932E93019680319105B9F681A151
:1019B000D52DD823D1A382A1482B42A3129681E032
:1019C000F501208131818216930609F480E0682AAE
:1019D000F1E0A338BF0709F09BCF262D45E06FE665
:1019E00071E089E791E00E94090D0E948706862D2B
:1019F000DF91CF911F910F91FF90EF90DF90CF90EB
:101A0000BF90AF909F908F907F906F905F90089560
:101A10000895FF920F931F93CF93DF93F82E092F12
:101A2000162FD72FC42F222349F081E08093850100
:101A30000E94752390938401809383018091850196
:101A40008823D9F080918301909184010E948123A1
:101A5000069798F0EF2DF02FA12FBD2F80E090E09A
:101A60004C2F50E08417950734F4219131912D9338
:101A70003D930196F7CF10928501DF91CF911F9191
:101A80000F91FF900895CF92DF92EF92FF920F9304
:101A90001F93CF93DF937B01282F382FE82FF0E09F
:101AA000F11006C0E953F94F6491762F862F7BC061
:101AB0000F2D10E046E0649FC0011124CFEFD0E06D
:101AC000BE010E94CC2FAB016BEA6403C001659F8D
:101AD000900D11248E0D911D8E0D911D982F990F33
:101AE000980FBE01601B710B6E9FD0016F9FB00DF0
:101AF0007E9FB00D11248B2F9F9DB0011124672F65
:101B000077277E01E61AF70AB7016E9F70016F9F73
:101B1000F00C7E9FF00C11246E01C91AD108C09EF2
:101B2000B001C19E700DD09E700D1124672F7727D4
:101B3000C61BD70BCE9F8001CF9F100DDE9F100DCF
:101B40001124712F4230510591F04CF4411551058B
:101B5000D9F041305105B1F4722F2F2D15C044300A
:101B6000510561F044F04630510571F00BC02B2F48
:101B7000812F732F09C07F2D2B2F02C0212F7B2F88
:101B8000832F02C07B2F8F2DE22FF0E0E953F94F16
:101B90006491E72FF0E0E953F94F7491E82FF0E0FA
:101BA000E953F94F8491DF91CF911F910F91FF90ED
:101BB000EF90DF90CF9008950895CF93DF93762F25
:101BC000E901682F842F0E94430D698378838A83FB
:101BD000DF91CF910895413F08F040EF0C94DD0D67
:101BE00080914202282F269530E02115310519F405
:101BF0008170826005C02532310524F081708864CF
:101C00008093420280914502813F18F080EF8093DB
:101C10004502089588E090E00C944B30CF93DF9319
:101C200000D000D0CDB7DEB7AB01BC0149835A83E9
:101C30006B837C830E94F00D49815A816B817C818A
:101C400088E090E00F900F900F900F90DF91CF9170
:101C50000C946930E2E4F2E083E0808311828FEF3C
:101C6000828380EF8383148260817181828193817A
:101C70000C940E0E8091280280FF08C089E995E03F
:101C80009F938F930E9426060F900F9080912802B9
:101C900080FF0FC08091420281701F928F938CE76A
:101CA00095E09F938F930E9426060F900F900F90C0
:101CB0000F908091280280FF0FC08091420286958C
:101CC0001F928F9381E695E09F938F930E94260643
:101CD0000F900F900F900F908091280280FF0EC000
:101CE000809143021F928F9387E495E09F938F9397
:101CF0000E9426060F900F900F900F90809128025F
:101D000080FF0EC0809144021F928F938DE295E078
:101D10009F938F930E9426060F900F900F900F9025
:101D20008091280280FF0EC0809145021F928F9300
:101D300083E195E09F938F930E9426060F900F906A
:101D40000F900F908091280280FF0EC08091460274
:101D50001F928F9387EF94E09F938F930E942606A4
:101D60000F900F900F900F9008958091420280FF86
:101D700002C08695089580E00895809146028330E0
:101D800018F48F5F80934602609142027091430283
:101D900080914402909145020C940E0E809146026F
:101DA000882319F08150809346026091420270911D
:101DB000430280914402909145020C940E0E609172
:101DC000040170E08091420280FF0AC080918A0184
:101DD00023E0829FC0011124895B9D4F0C949114D4
:101DE0008091890190910301891780F7E82FF0E035
:101DF0009F01220F331FE20FF31FE95BFD4F11829A
:101E0000108212828F5FF0CF9091420290FF16C035
:101E10009091890120910301921770F4E92FF0E06D
:101E2000DF01AA0FBB1FEA0FFB1FE95BFD4F818398
:101E3000608342839F5FF0CF0C94DF0E0895CF93B1
:101E4000DF9300D01F92CDB7DEB79091420290FF92
:101E50000AC09E012F5F3F4F0E94EB0D4B816981AD
:101E60008A810E94040F0F900F900F90DF91CF9105
:101E70000895CF93DF93EC01EC81F0E0EE53FA4F3D
:101E80004491E2E4F2E0628181810E941F0F8C8123
:101E90008F5F8C83DF91CF910895CF93DF93EC0117
:101EA000E2E4F2E0438162818C810E941F0F8C8109
:101EB0008F5F8C83DF91CF9108950F931F93CF9302
:101EC000DF9300D01F92CDB7DEB78C0180918601E1
:101ED00081110AC09E012F5F3F4F40EF6FEF0E94BC
:101EE000EB0D8A8180938601F8018481813051F065
:101EF00028F0823061F4409186010AC08091860109
:101F000040E007C06091860140E080E003C040E00F
:101F100080E060E00E94040FF801248130E0C901F4
:101F2000019663E070E00E94E02F84830F900F9091
:101F30000F90DF91CF911F910F9108956F927F9233
:101F40008F929F92AF92BF92CF92DF92EF92FF92C9
:101F50000F931F93CF93DF9300D000D0CDB7DEB7A0
:101F6000182FD62E042FB22E9091420290FFAAC0B5
:101F7000E92FE695AE2FB0E0A85CBE4F8C91809320
:101F800092019E7F923061F49E012F5F3F4F812F1F
:101F90000E94EB0D4B8169818A810E94040F60C011
:101FA000823019F4009145025BC0863019F410911B
:101FB000430256C08930D9F3893109F051C0E95143
:101FC0008E2F80958170C82EE695F0E0EE53F94F84
:101FD000E590F490A12CFF2422E5822E23E0922E9E
:101FE00060910201A616D0F56A2C712C6E9CC0017E
:101FF0006F9C900D7E9C900D112470E00E94CC2F60
:10200000812FCC2011F0860F01C0861B90912802F1
:1020100090FF13C0FF92EF921F92CF921F928F9367
:102020001F92AF929F928F928C830E9426060FB6CA
:10203000F894DEBF0FBECDBF8C8190918901690EEF
:10204000711C9301220F331F260D371D295B3D4F55
:10205000402F6D2D0E94EB0DA394C2CF0E94DF0E86
:1020600010934302D092440200934502BB20C9F072
:102070006091420270914302809144029091450226
:102080000E940E0E809145021F928F938091440210
:102090001F928F93809143021F928F938DE293E062
:1020A00008C01F920F931F92DF921F921F9386E02A
:1020B00093E09F938F930E9426060FB6F894DEBF9D
:1020C0000FBECDBF0F900F900F900F90DF91CF916B
:1020D0001F910F91FF90EF90DF90CF90BF90AF9046
:1020E0009F908F907F906F900895E2E4F2E091814D
:1020F000282F4381628188E0890F0C949E0F81E034
:102100000C947510E2E4F2E09181282F4381628102
:1021100088EF890F0C949E0F81E00C948210E2E40A
:10212000F2E0628128E0620F08F46FEF282F43810C
:1021300081810C949E0F81E00C948F10E2E4F2E018
:10214000628128E0621B08F460E0282F43818181CE
:102150000C949E0F81E00C949E10E2E4F2E0438127
:1021600028E0420F08F44FEF282F628181810C9400
:102170009E0F81E00C94AD10E2E4F2E0438128E090
:10218000421B08F440E0282F628181810C949E0F4D
:1021900081E00C94BC1020E00C949E0FFF920F93F2
:1021A0001F93CF93DF93EC01F12C0FEF10E06091C0
:1021B0000201F616E8F42091890130E02F0D311D5F
:1021C000C901880F991F280F391F295B3D4F70E007
:1021D000C8010E94E02F962F8C81409145026091AA
:1021E0004402F99E800D11240E94EB0DF394DFCF81
:1021F0000E94DF0E9A818C8190FF02C08F5F01C028
:1022000081508C83DF91CF911F910F91FF900895A2
:10221000BF92CF92DF92EF92FF920F931F93CF93D3
:10222000DF93FC01828180FF02C00FEF01C001E05B
:1022300010E0809102011817E0F5C12ED12C809199
:102240008901E601C80FD11DCE01880F991FC80F63
:10225000D91FC95BDD4F198218821A8234E0E32E40
:10226000F12CB12C809188018B0D87FF03C09091D8
:102270000201890F082E000C990BC816D90691F49B
:10228000809145028E9DA0018F9D500D1124559582
:102290004795559547959E01609144028091430270
:1022A0000E94EB0DB00EF1E0EF1AF108D9F61F5FB6
:1022B000C0CF0E94DF0E80918801013031F481117E
:1022C00002C080910201815007C090E001966091A8
:1022D000020170E00E94E02F80938801DF91CF918E
:1022E0001F910F91FF90EF90DF90CF90BF900895D6
:1022F000CF938091890190910301891770F4E82FA1
:10230000F0E09F01220F331FE20FF31FE95BFD4F47
:102310001182108212828F5FF0CFC0E060910201C3
:10232000C617B8F5EC2FF0E070E0CF010E94E02F67
:1023300040918901480F80918701082E000C990B6C
:1023400050E0E817F907C4F020910101022E000CBB
:10235000330B2E173F0784F09A01220F331F240FEF
:10236000351F295B3D4F40914502609144028091A9
:1023700043020E94EB0D0BC0FA01EE0FFF1F4E0F40
:102380005F1FFA01E95BFD4F118210821282CF5F5D
:10239000C5CF0E94DF0E2091000180918701820F3E
:1023A0008093870190910101920F9093010119167A
:1023B0005CF4082E000C990B4091020150E0415052
:1023C0005109841795071CF0219520930001CF91A6
:1023D00008950F931F93CF93DF938C01FC018481A9
:1023E000958101968170992795838483C0E0D5E516
:1023F00080910201C817F8F42091890130E02C0F78
:10240000311DC901880F991F280F391F295B3D4FC6
:102410004C2F4695F80184819581840F911D817020
:1024200040914502609144028D9F802D11240E94AD
:10243000EB0DCF5FDDCFDF91CF911F910F910C940A
:10244000DF0E0F931F93CF93DF93EC0100E010E0BA
:1024500080910201282F30E00217130724F5909194
:1024600089019801290F311DA901440F551F240F1F
:10247000351F295B3D4F869590E04C810817190761
:102480001CF4442331F002C0411103C040914502C5
:1024900001C040E060914402809143020E94EB0D34
:1024A0000F5F1F4FD5CF0E94DF0E2C8130E02F5FD2
:1024B0003F4F217033272C83DF91CF911F910F91D4
:1024C000089560914202669570E04BE050E085E02F
:1024D00091E00E943630892B19F481E080939301BA
:1024E0000E94752390938C0180938B018091280228
:1024F00080FF08C08DEE92E09F938F930E94260686
:102500000F900F900895109293018091280280FF00
:1025100008C084ED92E09F938F930E9426060F904F
:102520000F9008959091420290FF4CC091708111DC
:1025300002C0926006C0853210F0986402C0880F15
:10254000982B90934202662391F060914202709121
:10255000430280914402909145020E940E0E8091A8
:10256000420286951F928F938DE394E007C080917D
:10257000420286951F928F938FE194E09F938F93F1
:102580000E9426060F900F900F900F9060914202CC
:10259000669570E04BE050E085E091E00E943630B7
:1025A000892B19F00E94831202C00E94611281E0FF
:1025B00080938E01409145026091440280914302D4
:1025C0000C94CB100895682F90914202969581E06B
:1025D000890F853208F081E00C94921281E00C940E
:1025E000E312682F9091420296958FEF890F09F4BC
:1025F00084E20C94921281E00C94F11261E00C944C
:102600009212CF93DF93C2E4D2E088818160888305
:102610001F9281E08F9381EB93E09F938F930E94B1
:1026200026060F900F900F900F9088818695DF916E
:10263000CF910C94FE1260E00C9492128091910163
:10264000811161C08091280281608093280280EE10
:1026500094E09F938F930E942606809128020F900A
:102660000F9080FF08C08AEC94E09F938F930E94A4
:1026700026060F900F900E942722811110C0809192
:10268000280280FF08C082EA94E09F938F930E9403
:1026900026060F900F900E94AA220E942A0E0E94E6
:1026A0000A0E609342027093430280934402909317
:1026B00045026E7FC1F48091280280FF08C089E541
:1026C00094E09F938F930E9426060F900F900E9494
:1026D0002A0E0E940A0E6093420270934302809376
:1026E0004402909345020E94F00D0E943A0E10920F
:1026F00093018091420280FF03C086950E941B13C4
:1027000081E0809391010895CF93DF93C2E4D2E0FA
:1027100088818E7F8883688179818A819B810E94EC
:102720000E0E888181701F928F9389E793E09F93AB
:102730008F930E9426060E9483122FEF80E792E07B
:10274000215080409040E1F700C000000F900F90B2
:102750000F900F90DF91CF910C94DF0E8091420289
:10276000809581701F928F9388EE93E09F938F9353
:102770000E942606809142020F900F900F900F90BA
:1027800080FD0C9484130C9401130F931F93CF932B
:10279000DF9380919301882309F48CC0809192018A
:1027A000E0914202E695E81BE0938D01823049F406
:1027B000F0E0E254FA4FE491CE2FD0E009E31FE0BD
:1027C00049C0863049F4F0E0E554FA4FE491CE2F49
:1027D000D0E00DE41FE03EC0893051F4E695F0E012
:1027E000E854FA4FE491CE2FD0E00EEC10E132C065
:1027F0008F3051F4E695F0E0EB54FA4FE491CE2F90
:10280000D0E008E011E126C0853149F4F0E0EE5453
:10281000FA4FE491CE2FD0E008E711E11BC08831D8
:1028200081F0833239F4E0EBF5E0C591D4910DE508
:102830001FE010C0843251F4C4EFD1E001E212E194
:1028400009C0C8EED3E009EE11E104C0C0EDD7E045
:102850000CED1DE080918E01882389F010928E018D
:102860000E9475239E0120953095820F931F9093AF
:102870008C0180938B011092900110928F018091B6
:102880008B0190918C010E9481238C179D0790F001
:10289000E0918B01F0918C01CE0FDF1FD0938C0162
:1028A000C0938B018BE891E0F801DF91CF911F91EC
:1028B0000F910994DF91CF911F910F9108952EB13F
:1028C000342F309523233EB1432B3FB7F894FC01BE
:1028D000680F791FE617F70789F0819198E04EB9E4
:1028E000000000C087FF2EB9880F000000C000C0A4
:1028F00000C02EB900C09A9591F7ECCF3FBF089564
:102900002DB1242B2DB99B01220F331F620F731F92
:102910000E945F1487EC90E00197F1F700C000007F
:10292000089544E00C9480140F931F93CF93DF938A
:10293000C62FD42F022FFC0182818823C9F0609317
:1029400096010E947523909395018093940180E2F3
:102950008C0F883008F050C0C77081E001C0880F2C
:10296000CA95EAF7DF91CF911F910F910C94AB18A4
:1029700010919601161330C08091940190919501A9
:102980000E948123883C910538F5C0E2CD0F1D17C8
:10299000B9F080E2810F883040F4177081E001C007
:1029A000880F1A95EAF70E94B218C83048F481E0FF
:1029B0009D2F977001C0880F9A95EAF70E94AB1877
:1029C000802F0E949818C830B8F4D77081E001C0F9
:1029D000880FDA95EAF70AC080E28C0F883060F43D
:1029E000C77081E001C0880FCA95EAF7DF91CF91E7
:1029F0001F910F910C94B218DF91CF911F910F91FD
:102A000008959C01CB01203F4CE53407F9F078F4A0
:102A1000283DFCE53F07B9F0293D4CE5340711F1AD
:102A2000273D3C4531F526E241EE61EE1EC0223FD6
:102A3000FCE53F0799F070F0233F3C45D1F427E2D5
:102A400045EE66EE12C027E245EE0EC026E241EEEC
:102A500060EE0BC027E245EE64EE07C026E241EED1
:102A600062EE03C028E241E065EE0E94941480E02B
:102A70000895FC018281882319F01092960108952F
:102A800081E0089590939C0180939B010895E091CB
:102A90009B01F0919C01309721F00190F081E02D95
:102AA000099480E00895EF92FF920F931F93CF93C4
:102AB000DF93E0919B01F0919C013097B1F18C0183
:102AC0000280F381E02D09958091280282FF2DC0BC
:102AD00080FF04C08FEC97E00E948D05E80118E0AC
:102AE00089ECE82E87E0F82E8091280280FF0BC049
:102AF00088811F928F93FF92EF920E9426060F907B
:102B00000F900F900F90115021961111EDCF8091E1
:102B1000280280FF0AC087EC97E0DF91CF911F91D8
:102B20000F91FF90EF900C948D05DF91CF911F9145
:102B30000F91FF90EF900895E0919B01F0919C011F
:102B4000309739F022E0DC012C930480F581E02DF0
:102B5000099408952091990130919A018217930761
:102B600071F090939A0180939901E0919B01F0910B
:102B70009C01309721F00680F781E02D099408959B
:102B800020919701309198018217930771F09093EB
:102B9000980180939701E0919B01F0919C013097FF
:102BA00021F00084F185E02D0994089585B78068AF
:102BB00085BF85B7806885BF0895089508950C94F2
:102BC000DE1508950C94E1150E94D6150E94DD15BE
:102BD0000C94DF1581E008950E946C230E94270C5D
:102BE0000E94F5230E94B1260E941E130C94E21548
:102BF000CF93C82F8091280282FF1EC080FF04C09F
:102C000088EE97E00E948D058091280280FF0CC01D
:102C10001F92CF9383EE97E09F938F930E94260697
:102C20000F900F900F900F908091280280FF04C0AA
:102C300081EE97E00E948D058C2FCF910C941507A3
:102C40004F925F927F928F929F92AF92BF92CF925C
:102C5000DF92EF92FF920F931F93CF93DF93CDB745
:102C6000DEB72A970FB6F894DEBF0FBECDBF0E9425
:102C7000710C0E94EA15811111C08FEF89838A833C
:102C80001B820E9475238160782F9D838C834981EC
:102C90005A816B818D810E94DE1657C09EE9C92E34
:102CA00091E0D92E00E010E0AA24A394B12C702E5C
:102CB000802F0E94D70B4C01F601419051906F017B
:102CC000482659264114510431F40F5F1F4F053037
:102CD000110569F7D2CF8091280281FD0E94E00B97
:102CE00020E030E07501022E02C0EE0CFF1C0A94B9
:102CF000E2F7C70184219521892B09F12E837F8278
:102D00008E209F2091E0892809F490E098870E9406
:102D100075238160782F9A8789874E815F816885C6
:102D20008A850E94DE16000F111FF801E256FE4F41
:102D300080819181E826F926F182E08206C02F5F2A
:102D40003F4F2031310571F6C0CF0E940A26109105
:102D50009D010E9447151817D9F00E9447158093CE
:102D60009D012A960FB6F894DEBF0FBECDBFDF914E
:102D7000CF911F910F91FF90EF90DF90CF90BF9078
:102D8000AF909F908F907F905F904F900C94F8152C
:102D90002A960FB6F894DEBF0FBECDBFDF91CF915C
:102DA0001F910F91FF90EF90DF90CF90BF90AF9069
:102DB0009F908F907F905F904F900895CF93DF9377
:102DC000CDB7DEB72B970FB6F894DEBF0FBECDBFE1
:102DD0004F83588769877A878B87DE01119686E053
:102DE000FD0111928A95E9F785E0FE013796019081
:102DF0000D928A95E1F749815A816B817C818D81A1
:102E00009E810E94311E2B960FB6F894DEBF0FBE36
:102E1000CDBFDF91CF910895FC01808191810E9407
:102E2000FD200895882309F41AC18238C1F40E9454
:102E3000471581FD14C169E3809110019091110142
:102E40000E94DE220E9488212FEF81EE94E0215023
:102E500080409040E1F700C0000069E319C083386A
:102E6000F9F40E94471580FDFAC063E580911001D6
:102E7000909111010E94DE220E9488212FEF81EEA5
:102E800094E0215080409040E1F700C0000063E5ED
:102E900080911001909111010E94E0220C948821F0
:102EA0008438C1F40E94471582FDD9C067E480913F
:102EB0001001909111010E94DE220E9488212FEFC3
:102EC00081EE94E0215080409040E1F700C0000086
:102ED00067E4DECF9CEF980F913A40F4682F809121
:102EE0001001909111010E94DE22D8CF90E2980F3C
:102EF000983050F4877091E001C0990F8A95EAF7F5
:102F0000892F0E943F21CACF9BE5980F933070F420
:102F1000853A29F0863A31F083E890E005C081E8EF
:102F200090E002C082E890E00C94AA1598E5980F12
:102F3000973108F08EC0883A09F445C0893A09F4FF
:102F400045C08A3A09F445C08B3A09F445C08C3A29
:102F500009F445C08B3B09F445C08C3B09F445C0DE
:102F60008D3A09F445C0803B09F445C08E3A09F416
:102F700045C08F3A09F445C0813B09F445C0823B06
:102F800009F445C0833B09F445C0843B09F445C0BE
:102F9000853B09F445C0863B09F445C0873B09F4ED
:102FA00045C0883B09F445C0893B09F445C08D3BC9
:102FB00009F445C08E3B09F445C08A3B09F445C07D
:102FC00080E090E044C082EE90E041C089EE90E065
:102FD0003EC08AEE90E03BC085EB90E038C086EBC7
:102FE00090E035C083EB90E032C084EB90E02FC0DE
:102FF00087EB90E02CC08CEC90E029C08DEC90E049
:1030000026C083E891E023C08AE891E020C082E9ED
:1030100091E01DC084E991E01AC081E292E017C0FE
:1030200083E292E014C084E292E011C085E292E073
:103030000EC086E292E00BC087E292E008C08FE605
:1030400090E005C080E790E002C08AE292E00C9434
:10305000C015803F20F00E9490240C947D25089597
:10306000882309F464C0823879F40E94471581FFEF
:103070005EC069E380911001909111010E94DE22EF
:103080000E94882169E310C08338B1F40E9447157B
:1030900080FF4DC063E580911001909111010E9465
:1030A000DE220E94882163E5809110019091110138
:1030B0000E94E0220C948821843879F40E944715FC
:1030C00082FF35C067E480911001909111010E9448
:1030D000DE220E94882167E4E7CF9CEF980F913AA7
:1030E00010F4682FE1CF90E2980F983050F4877079
:1030F00091E001C0990F8A95EAF7892F0E94452136
:10310000D9CF9BE5980F933020F480E090E00C94A9
:10311000AA1598E5980F973120F480E090E00C9480
:10312000C015803F20F00E94F8240C947D2508955E
:10313000CF93C82F0E941217C93349F42FEF83ECA5
:1031400099E0215080409040E1F700C000008C2FB2
:10315000CF910C943018882321F00E943F210C94C9
:1031600088210895882321F00E9445210C9488210C
:1031700008954F925F926F927F92BF92CF92DF92AB
:10318000EF92FF920F931F93CF93DF937C01062F53
:10319000C72FFC01158112951F70D281D1110E9499
:1031A0005C210E943521882379F0DD2369F080E2DB
:1031B000800F883048F082E00E94D3210E943521A0
:1031C00091E0B82EB92601C0B12CCC2EC2948FE06C
:1031D000C822D12CF601E859FF4F0C9416308C2FE1
:1031E000807FCF70882311F0C295C07FDD2399F0D6
:1031F000CC2309F4C4C180E2800F883010F00111A3
:1032000004C08C2F0E943F2103C08C2F0E944F21AD
:103210000E948821B4C1802F0E943018CC2309F469
:10322000F7C180E2800F883010F0011104C08C2FAC
:103230000E94452103C08C2F0E9455210E948821A5
:10324000E7C18C2F807FCF70803211F0C295C07F94
:10325000002319F00130C9F022C0DD2371F01123E1
:1032600041F0113031F40E946F218C2B0E947521A6
:10327000CFC10E946F218C2B3AC1112319F011305C
:1032800009F4C6C10E947E2118C0DD2321F016304A
:1032900008F0BEC10EC0153008F0BAC10EC0DD2363
:1032A00051F0112331F0F701858180FF68C18F70E3
:1032B00085838C2F1CC1111173C18C2F1EC18C2FC3
:1032C00086958695837090E0009719F0019761F0DC
:1032D0009FC1DD2321F0802F9C2F937002C080E0DE
:1032E00090E00E94AA15A4C1DD2321F0802F9C2F1D
:1032F000937002C080E090E00E94C01599C1DD2368
:10330000F9F0053F51F0063F71F0043FA9F48091B8
:103310007D0290917E0281600BC080917D02909130
:103320007E02826005C080917D0290917E02846061
:1033300090937E0280937D02802F0E9490241EC075
:10334000053F51F0063F71F0043FA9F480917D02E2
:1033500090917E028E7F0BC080917D0290917E02C3
:103360008D7F05C080917D0290917E028B7F90932E
:103370007E0280937D02802F0E94F8240E947D258A
:1033800057C18C2F837009F04BC0D1114DC1202F34
:10339000229526952770220F220F602F6F70862F9F
:1033A00090E0A0E0B0E02C013D01022E04C0440CEE
:1033B000551C661C771C0A94D2F704FF10C08FE0DE
:1033C00090E0A0E0B0E004C0880F991FAA1FBB1FC7
:1033D0002A95D2F780959095A095B09503C080E08E
:1033E00090E0DC01C695C695C370D0E0BC01CD016C
:1033F0006429752986299729C230D10559F0C3302F
:10340000D10559F0219719F00E94761F0DC10E9435
:10341000641F0AC10E94881F07C10E94621F04C165
:10342000DD2319F08C2F817001C08695882309F463
:10343000FBC0202F229526952770220F220F602F88
:103440006F70862F90E0A0E0B0E02C013D01022ECD
:1034500004C0440C551C661C771C0A94D2F704FF68
:1034600010C08FE090E0A0E0B0E004C0880F991F8A
:10347000AA1FBB1F2A95D2F780959095A095B0956D
:1034800003C080E090E0DC01C695C695C370D0E033
:10349000BC01CD016429752986299729C230D1053F
:1034A00059F0C330D10559F0219719F00E943C2002
:1034B000BBC00E942A20B8C00E944E20B5C00E9406
:1034C0009D1FB2C0802F90E0FC01E05EF109E53164
:1034D000F10508F050C0E858FF4F0C9416300F70FB
:1034E0008C2F8F71DD2331F00E94C31F802F0E942B
:1034F000AB188EC00E94E41F802F0E94B21888C0B3
:10350000DD2341F0153008F083C08C2F8F710E94AD
:1035100009207EC0163008F07BC0F7CFDD2339F0DC
:103520008C2F8F710E94C31F73C0DD23C9F38C2FB2
:103530008F710E94E41F6CC0DD2329F08C2F8F71E6
:103540000E94AE1F65C00E94A91F62C0DD2349F022
:10355000CF718C2F0E94C31F63E08C2F0E94BE216D
:1035600057C081E00E94D321123008F451C082E09C
:103570000E94D3214DC0DD2331F0112389F2802F29
:103580000E94121745C0112391F2093349F4FFEF4D
:1035900023EC89E0F15020408040E1F700C00000BA
:1035A000802F0E94301834C04C2F4F70602FC701FD
:1035B0000E9421090E94D51E3BC0D11139C0CF7095
:1035C000D0E0C230D10599F03CF4209769F0219702
:1035D000F9F40E94FE262CC0C430D10571F054F0DD
:1035E0002597B1F480E00AC00E94CE2621C00E9437
:1035F00068271EC00E9484271BC083E00E94BA2750
:1036000017C04C2F4F70602FC7010E94240910C0B3
:1036100098E0C916D10441F05CF0FAE0CF1AD10865
:1036200022E0C216D10420F40E9447150E9415071B
:10363000BB20F1F00E94312180FD1AC0F7011282F7
:103640000E942B210E94C31FC7010E94461B0E949B
:103650002B21DF91CF911F910F91FF90EF90DF9081
:10366000CF90BF907F906F905F904F900C94E41F2D
:10367000DF91CF911F910F91FF90EF90DF90CF904E
:10368000BF907F906F905F904F9008950F931F931E
:10369000CF93DF93EC01888199812B813C81232B8F
:1036A000B9F09F3F11F48F3F99F0CE010E94270798
:1036B000882371F0688179818A810E9408218C01B8
:1036C0000E9460200E94611FB801CE010E94B918BB
:1036D000DF91CF911F910F9108950E945C210E946C
:1036E0006C210E9488210E94A5260E947D2580E0F1
:1036F00090E00E94AA1580E090E00C94C0158091A3
:103700001001909111010E94E2220C946D1B0E9405
:103710004C210C947F1BE92FE295EF70F0E032977B
:10372000EE30F105B0F4E357FF4F0C941630803FB4
:1037300091F018F4803E68F40EC0843F51F40BC041
:10374000803E48F0813F29F406C093FB882780F92A
:10375000089580E0089581E008950E94FD200E9470
:103760008B1B0895CF93DF9300D000D01F92CDB76D
:10377000DEB70F900F900F900F900F90DF91CF91C9
:103780000895CF93DF9300D000D000D0CDB7DEB73F
:1037900026960FB6F894DEBF0FBECDBFDF91CF9156
:1037A00008951F93CF93DF93C091A90116E08091F4
:1037B000AA01C81799F0D0E01C9FF0011D9FF00DE1
:1037C0001124E555FE4F40815181628173818481CE
:1037D00095810E94C11B2196C770E9CFDF91CF91DF
:1037E0001F9108954091DB015091DC016091DD0152
:1037F0007091DE018091DF019091E0010C94C11B7A
:103800008091E00182958F7009F054C08091DD01B4
:10381000882309F44FC08091A901A091AA01609169
:10382000DB017091DC014091DE015091DF01B6E0D7
:103830008A1709F43FC090E041155105C1F17F3F5F
:1038400011F46F3FA1F1B89FF001B99FF00D112461
:10385000E555FE4F218172132AC02081621327C0D3
:103860002281211124C0238134812417350710F4CB
:1038700021503109241B350B283C3105C0F420911F
:10388000E0012F7020612093E00126E0289FF001E5
:10389000299FF00D1124E055FE4F80818F708061CB
:1038A00080838BED91E00E94461B0C94D11B019606
:1038B0008770BECF0895CF92DF92EF92FF920F9361
:1038C0001F93CF93DF93CDB7DEB762970FB6F8940F
:1038D000DEBF0FBECDBF8C0185E0F801DE011D9675
:1038E00001900D928A95E1F7D8014C9111965C9167
:1038F000119712966C9112971396CD90DC901497B5
:103900003091DB017091DC018091DE019091DF014B
:10391000009709F46BC17F3F19F43F3F09F466C17A
:10392000E090DD01EE2009F4C0C02091E001C8164E
:10393000D90628F0F601E81BF90BCF0104C08095E9
:1039400090958C0D9D1DFF24F394883C910578F093
:10395000F12C207F09F0C6C07C2DD98AC88A8989BC
:103960000E94B21B8BED91E00E94461BB1C0822FDA
:10397000807F09F046C0751314C0341312C0611162
:1039800010C02F7020612093E0010E94F21B8BED8C
:1039900091E00E94461B8091E001D80115968C931E
:1039A0002EC0CD2819F15F3F11F44F3FF9F0F62EEC
:1039B00061111CC08091A9012091AA0136E08217F3
:1039C00009F45AC090E0389FF001399FF00D11249E
:1039D000E555FE4F7181571306C07081471303C030
:1039E0007281711103C001968770E9CFF62E6623AC
:1039F00009F427C18091E00181608093E001F12CFE
:103A000020C1751308C0341306C0611104C0809131
:103A1000E001D801C3C04D875E878D859E856A8B86
:103A20000E94AD1B6A898823E1F16623D1F12091C0
:103A3000E001822F82958F7090E0029774F0809160
:103A4000DB019091DC0198878F831986DB86CA861B
:103A50002C87CE0107960E94461B86E0F801ABED4D
:103A6000B1E001900D928A95E1F70E94001C0E943E
:103A7000F21BFF24F394E5C04D875E878D859E85FC
:103A80000E94FD20292F22952F7030E02230310531
:103A90000CF0CBC09F7009F0C5C0805E883008F480
:103AA000D0C0C8010E94461BE4CFC816D90608F44E
:103AB00053C0F601E81BF90BCF01883C910508F4CF
:103AC00050C0F12C7C2DD98AC88A89890E94B21BEA
:103AD000EBEDF1E086E0DF011D928A95E9F70E94A7
:103AE000F21BAFC0751314C0341312C0611110C0A3
:103AF0008091E001F8018583C8010E94461B86E0A1
:103B0000EBEDF1E0DF011D928A95E9F7FE2C99C0FB
:103B10004D875E878D859E856A8B0E94AD1B6A8965
:103B2000882309F4BECF662309F4BBCF2091E001BE
:103B3000822F82958F7090E002970CF48ECF809147
:103B4000DB019091DC019A8389831B82DD82CC8228
:103B50002E83CE0101967FCF809590958C0D9D1D73
:103B6000ACCFF62E662309F49CCF75132EC0341308
:103B70002CC02091E00120FD1FC0822F82958F7004
:103B8000D9F0D80115962C9315978F3049F08F5F97
:103B9000982F9295907F822F8F70892B15968C93FA
:103BA000C8010E94461B86E0F801ABEDB1E0019030
:103BB0000D928A95E1F793CF86E0F801ABEDB1E085
:103BC00001900D928A95E1F73CC04D875E878D8507
:103BD0009E850E94AD1B811140CF8091E0018160E4
:103BE0008093E001C8010E94461B2BC0662309F4A4
:103BF00058CF4D875E878D859E850E94AD1BF82E20
:103C0000882309F44ECF86E0F801ABEDB1E00190D6
:103C10000D928A95E1F78BED91E00E940C170E94BE
:103C2000001C5DCF811139CF0CC0243031050CF060
:103C300038CF9F7009F431CFF8019581907F09F05A
:103C40002CCF8F2D62960FB6F894DEBF0FBECDBF7E
:103C5000DF91CF911F910F91FF90EF90DF90CF9068
:103C600008951F93CF93DF93CDB7DEB72C970FB690
:103C7000F894DEBF0FBECDBF4F83588769877A8720
:103C80008B879C87CE0107960E945B1C882369F076
:103C90008F8198852A853B85232BF1F19F3F09F081
:103CA00063C08F3F09F060C037C086E0FE013796E1
:103CB000DE01119601900D928A95E1F76F8178856A
:103CC000EA85FB85309741F17F3F11F46F3F21F189
:103CD0002091AA0130E0C90101968770992740918F
:103CE000A90150E08417950709F447C069837A83D6
:103CF000FD83EC8396E0929FD001939FB00D112439
:103D0000A555BE4FFE01319601900D929A95E1F7AF
:103D10008093AA010E94D11B16E08091A901909185
:103D2000AA018917C1F1189FC001112485559E4F22
:103D30000E945B1C882379F1E091A9011E9FF0018C
:103D40001124E555FE4F4081518162817381848148
:103D500095810E94C11B8091A90190E00196877016
:103D600099278093A901D9CF4F81588569857A8594
:103D70008B859C850E94C11BCFCF0E94871B109210
:103D8000AA011092A901EBEDF1E086E0DF011D929E
:103D90008A95E9F7C1CF2C960FB6F894DEBF0FBE17
:103DA000CDBFDF91CF911F910895EF92FF920F93B6
:103DB0001F93CF93DF938C01892B09F46CC0F12CF6
:103DC000EE24E394E8012196F8018491843740F4CD
:103DD000843008F051C0813081F0823019F15BC02D
:103DE000853709F444C0A8F19CE7980F903708F094
:103DF00052C08F770E94301841C00E5F1F4FFE01E6
:103E0000C49180E28C0F883048F4C7708E2D01C0B9
:103E1000880FCA95EAF70E945F2114C08C2F0E9478
:103E200012172DC00E5F1F4FFE01C49180E28C0F50
:103E3000883058F4C7708E2D01C0880FCA95EAF7F4
:103E40000E9465210E9488211AC08C2F0E94301880
:103E500016C00E5F1F4FFE01C491CC2381F08FE985
:103E60009FE00197F1F700C00000C150F6CF0E5F50
:103E70001F4FFE01F49003C00E9412178E018F2D78
:103E8000882309F49FCFEFE9FFE03197F1F700C0F5
:103E900000008150F5CFDF91CF911F910F91FF90DE
:103EA000EF90089508950C94521F0E94531F609341
:103EB0001702709318028093190290931A020C94BF
:103EC0006D1B08950C94551F0F931F9300911702BB
:103ED000109118022091190230911A02602B712B57
:103EE000822B932B1F910F910C94551F0F931F93AF
:103EF00000911702109118022091190230911A02B4
:103F000060237123822393231F910F910C94551FDB
:103F10000F931F930091170210911802209119021C
:103F200030911A0260277127822793271F910F91E2
:103F30000C94551F08950C949A1F0E949B1F609328
:103F400013027093140280931502909316020C943E
:103F50006D1B60E070E0CB010C949D1F0F931F93CD
:103F600041E050E060E070E08A019B0104C0000F76
:103F7000111F221F331F8A95D2F7C901B8011F9163
:103F80000F910C949D1F0F931F9341E050E060E050
:103F900070E004C0440F551F661F771F8A95D2F743
:103FA0008091130290911402A0911502B091160213
:103FB0008A019B01082B192B2A2B3B2BC901B80125
:103FC0001F910F910C949D1F0F931F9341E050E0A0
:103FD00060E070E004C0440F551F661F771F8A958C
:103FE000D2F740955095609570958091130290910D
:103FF0001402A0911502B09116028A019B010823B8
:1040000019232A233B23C901B8011F910F910C9456
:104010009D1F0F931F9341E050E060E070E004C0EB
:10402000440F551F661F771F8A95D2F780911302A0
:1040300090911402A0911502B09116028A019B0181
:10404000082719272A273B27C901B8011F910F917B
:104050000C949D1F0F931F93009113021091140253
:104060002091150230911602602B712B822B932B1D
:104070001F910F910C949D1F0F931F93009113029A
:1040800010911402209115023091160260237123C1
:10409000822393231F910F910C949D1F0F931F93C5
:1040A0000091130210911402209115023091160212
:1040B00060277127822793271F910F910C949D1FD2
:1040C000089520E1929F800D1124A82FA695A69512
:1040D000A695877051E001C0550F8A95EAF785E0F3
:1040E000A89FD001112420E030E070E0F901EA0F30
:1040F000FB1FEF51FE4F4081CB01022E02C096956F
:1041000087950A94E2F78170992781958427852302
:10411000842780832F5F3F4F2530310539F708957D
:1041200020E1929F800D1124682F66956695669513
:10413000982F977085E0689FB001112440E050E00F
:1041400080E0FA01E60FF71FEF51FE4F208130E0CB
:10415000092E02C0369527950A94E2F7217033277D
:10416000042E01C0220F0A94EAF7822B4F5F5F4FA3
:104170004530510531F70895BF92CF92DF92EF920B
:10418000FF920F931F93CF93DF938C01C090170280
:10419000D0901802E0901902F0901A028091130258
:1041A00090911402A0911502B0911602C82AD92A42
:1041B000EA2AFB2ACFE1D0E0D701C6010C2E04C0C9
:1041C000B695A795979587950A94D2F780FF07C073
:1041D000BC2EB8018C2F0E944209019719F4219737
:1041E00058F7B12C8B2DDF91CF911F910F91FF903C
:1041F000EF90DF90CF90BF900895CF93DF93EC01C5
:104200000E94BC20BE010E944209DF91CF91089517
:104210001F93CF93DF93EB019091A801992321F095
:10422000CB010E94FD2013C0882349F0CB010E94DE
:10423000BC20182F682FCE010E94612004C0CB0142
:104240000E949020182FBE01812F0E944209DF9109
:10425000CF911F91089580911B0285958595859535
:10426000089580911B028770089590911B029770AA
:1042700081E009F480E008958091270208959091EB
:104280002702892B80932702089580959091270219
:104290008923809327020895109227020895909110
:1042A0002602892B809326020895809590912602FC
:1042B00089238093260208951092260208959091F2
:1042C0002502892B809325020895809590912502DF
:1042D00089238093250208951092250208958091E4
:1042E0001C02089508950C94722190911C02981755
:1042F00021F080931C020C947321089580911C027C
:10430000882329F010921C0280E00C9473210895F8
:10431000E0911001F0911101809127028083E091DA
:104320001001F0911101908180912602892B8083E8
:10433000E0911001F0911101908180912502892B6B
:10434000808380911C02882381F0E0911001F0911C
:1043500011019081892B808380911001909111012E
:104360000E94AC2281110E947E21809110019091C7
:1043700011010C94531508950C94BB2198E0899F6A
:1043800090011124262B20931B020E94C31F8091B1
:104390001B028595859585950C94BC2110921B0276
:1043A00080E00C94BC2120911B0280958223809395
:1043B0001B02982F977079F430E0482F082E000CDC
:1043C000550B2417350739F08595859585950E94FD
:1043D000E41F0C94CE21089590936D0180936C019D
:1043E00008958295982F9C7C392F36953695282FE5
:1043F000237344E0249FC0011124932F982B292F6D
:104400002A7A2695892F8575880F822B08951F9308
:10441000CF93DF931F92CDB7DEB799830E94F1212E
:10442000182F9981892F0E94F121212F30E0322FFE
:104430002227A901482BCA010F90DF91CF911F912C
:1044400008956FEF7FEF80E090E00C94753080E08E
:1044500090E00E94513021E08D3E9E4F09F020E017
:10446000822F089582E090E00C94433083E090E046
:104470000C94433084E090E00C944330682F84E047
:1044800090E00C94573086E090E00C944330682F15
:1044900086E090E00C945730AB01BC018FE090E0D7
:1044A0000C946930AB01BC0183E190E00C9469305D
:1044B00060E070E0CB010C94522260E070E0CB0130
:1044C0000E944C220C9458226DEE7EEF80E090E02A
:1044D0000E94753060E082E090E00E94573060E01A
:1044E00083E090E00E945730109217021092180259
:1044F0001092190210921A0260E084E090E00E948B
:10450000573060E085E090E00E94573060E086E040
:1045100090E00E9457306FEF87E090E00E945730A4
:1045200040E050E0BA0188E090E00E94693060E02D
:104530008DE090E00E94573040E050E0BA0188E101
:1045400090E00E94693060E087E190E00E9457307F
:104550000C945D220C946422FC01329697E080E07A
:10456000915029F021912223D9F38F5FF9CF08953B
:104570009C01FC0132969FEF80E04191461789F043
:104580009F3F19F4411101C0982F8F5F8630A9F722
:104590009F3F39F0F901E90FF11D97FDFA9562830C
:1045A00008950895FC01329608962081261301C0D3
:1045B00010823196E817F907C1F708950C94B822D4
:1045C0000C94D222029626E0FC0111922A95E9F77A
:1045D000089508950C94E9220E94EA2280918A02AB
:1045E000843061F11092290220E488E190E00FB656
:1045F000F894A895809360000FBE2093600080E03F
:104600000E949A0680E00E9415070E94EA2283B762
:10461000817F846083BF83B7816083BF78948895EE
:1046200083B78E7F83BF0FB6F894A8958091600002
:10463000886180936000109260000FBE0895089515
:104640000895CF930E941F230E94710C0E94202383
:10465000C0E08C2F0E94D70B892B29F4CF5FC53087
:10466000C1F780E001C081E0CF91089508950C94D6
:1046700036230E94871B0E94B1260E9447150E9484
:1046800015070C9437231F920F920FB60F92112427
:104690008F939F93AF93BF9380912902811113C091
:1046A00080917F0290918002A0918102B09182025C
:1046B0004196A11DB11D80937F0290938002A0932B
:1046C0008102B0938202BF91AF919F918F910F9021
:1046D0000FBE0F901F90189582E084BD93E095BDAA
:1046E0009AEF97BD80936E0008952FB7F89480914C
:1046F0007F0290918002A0918102B09182022FBF2F
:104700000895CF92DF92EF92FF920F931F932FB7EE
:10471000F89440917F0250918002609181027091E3
:1047200082022FBF6A017B01EE24FF248C0120E06E
:1047300030E0C016D106E206F30610F441505109EC
:104740009A01281B390BC9011F910F91FF90EF901F
:10475000DF90CF90089578941F920F920FB60F922A
:1047600011248F939F93AF93BF9380917F02909179
:104770008002A0918102B09182020196A11DB11D1B
:1047800080937F0290938002A0938102B093820273
:10479000BF91AF919F918F910F900FBE0F901F907F
:1047A000189581E08093E00080E28093D800109219
:1047B000C9008FE19EE40197F1F700C0000087E097
:1047C00090EBDC018093930290939402A093950266
:1047D000B09396029CE088E10FB6F894A895809378
:1047E00060000FBE90936000FFCF0E9427228111CE
:1047F00002C00E94AA220E943222809328020E94B4
:104800003A2290E090938402809383020E943622A1
:10481000682F70E080E090E00C94621F80912D0280
:1048200080FF0BC06091150185E0689FB0011124E5
:1048300075956795759567952BC081FF09C0609147
:10484000150185E0689FB00111247595679520C01A
:1048500082FF07C06091150185E0689FB0011124B7
:1048600017C090912C029923D1F0609114019617F2
:1048700088F72091150185E0289F90011124929FCF
:10488000A001939F500D112470E0CA010E94E02FF7
:104890006038710540F46115710539F002C065E0BA
:1048A00070E0862F08958FE7089581E00895809144
:1048B0002D0280FF08C06091130170E07595679527
:1048C0007595679521C081FF06C06091130170E066
:1048D0007595679519C082FF04C06091130170E05F
:1048E00010C090912C029923C1F06091120196178B
:1048F000A0F780911301899FC001112470E00E94EC
:10490000E02F6038710528F46115710521F0862FBC
:1049100008958FE7089581E0089561E070E0F4CF95
:10492000803F21F40E940E24819504C0813F29F428
:104930000E940E24809331020895823F21F40E9448
:104940000E24819504C0833F29F40E940E24809395
:1049500030020895893F19F40E94572405C08A3F08
:1049600031F40E94572481958093320208958B3F41
:1049700021F40E945724819504C08C3F29F40E94A1
:104980005724809333020895843F21F480912F02AD
:10499000816017C0853F21F480912F02826011C091
:1049A000863F21F480912F0284600BC0873F21F461
:1049B00080912F02886005C0883F31F480912F02DA
:1049C000806180932F0208958D3F21F480912D0204
:1049D00081600BC08E3F21F480912D02826005C062
:1049E0008F3F29F480912D02846080932D020895D9
:1049F000803F39F48091310287FF6CC01092310200
:104A000069C0813F29F4809131021816BCF362C05D
:104A100090913002823F29F497FF5CC010923002DF
:104A200059C0833F19F41916CCF354C0893F41F49F
:104A30008091320218160CF04DC0109232024AC01A
:104A40008A3F29F48091320287FF44C0F6CF8B3F22
:104A500039F48091330287FF3DC0109233023AC08F
:104A60008C3F29F4809133021816BCF333C0843F85
:104A700021F480912F028E7F17C0853F21F4809111
:104A80002F028D7F11C0863F21F480912F028B7FF2
:104A90000BC0873F21F480912F02877F05C0883F9C
:104AA00031F480912F028F7E80932F0213C08D3FAF
:104AB00021F480912D028E7F0BC08E3F21F48091D6
:104AC0002D028D7F05C08F3F29F480912D028B7FB1
:104AD00080932D028091300281110EC080913102AD
:104AE00081110AC080913202811106C08091330287
:104AF000811102C010922C0208958091280283FF38
:104B00007EC082E298E00E948D0580912F021F9264
:104B10008F938DE198E09F938F930E9426068BE1FF
:104B200098E00E948D0580913002282F082E000CFD
:104B3000330B3F938F9388E198E09F938F930E946C
:104B4000260686E198E00E948D0580913102282F8B
:104B5000082E000C330B3F938F9383E198E09F93D3
:104B60008F930E94260681E198E00E948D05809136
:104B70003202282F082E000C330B3F938F938EE0C8
:104B800098E09F938F930E9426068CE098E00E9405
:104B90008D0580913302282F082E000C330B3F9394
:104BA0008F9389E098E09F938F930E94260686E07A
:104BB00098E00E948D0580912C021F928F9383E0D4
:104BC00098E09F938F930E94260681E098E00E94D0
:104BD0008D0580912D021F928F938EEF97E09F930A
:104BE0008F930E9426068BEF97E00E948D058DB76C
:104BF0009EB74C960FB6F8949EBF0FBE8DBF8EE247
:104C000092E00E949C150E94752390932B02809342
:104C10002A0208951F93CF93DF9380912A029091E7
:104C20002B020E948123AC0190912C02992321F048
:104C30002091160130E006C0209117018AE0289FDC
:104C4000900111244217530708F47BC08091300271
:104C5000C0913102D091320210913302811107C00C
:104C6000C1116BC0D11169C0111167C06AC09F3FEB
:104C700019F09F5F90932C02181624F40E940E24C2
:104C8000809330028091300287FF05C00E940E247D
:104C90008195809330021C1624F40E940E24809388
:104CA00031028091310287FF05C00E940E24819558
:104CB00080933102309130023323E1F020913102B0
:104CC0002223C1F045EB3403C0011124892F990F31
:104CD000990B009709F481E08093300235EB2303B0
:104CE000C0011124892F990F990B009709F481E0D5
:104CF000809331021D1624F40E94572480933202BF
:104D00008091320287FF05C00E94572481958093CD
:104D10003202111624F40E945724809333028091AA
:104D2000330287FF05C00E94572481958093330288
:104D3000DF91CF911F910C947D259F3F09F099CF72
:104D4000A1CFDF91CF911F910895EEE2F2E086E0CE
:104D5000DF011D928A95E9F710922C0210922D0224
:104D600008950E942722811102C00E94AA220E9457
:104D7000432280938502282F269530E02430310588
:104D800024F081708660809385028091850280FF87
:104D900002C0869501C080E00C949A06209185029D
:104DA000822F8695482F50E04330510544F48F5FA1
:104DB000982F990F822F8170892B80938502809183
:104DC00085028160809385020E944722809128029B
:104DD00080FF0FC08091850286951F928F938CEA89
:104DE00098E09F938F930E9426060F900F900F904C
:104DF0000F908091850286950C949A068091850289
:104E0000982F969591F09158990F8170892B8093E6
:104E100085028E7F91E009F490E08091850290FBFD
:104E200080F9809385020E9447228091280280FFAA
:104E30000FC08091850286951F928F9384E998E038
:104E40009F938F930E9426060F900F900F900F90C4
:104E50008091850286950C949A068091850280FD4A
:104E60001DC0816080938502813019F483E08093B6
:104E70008502809185020E9447228091280280FF4E
:104E800008C08CE698E09F938F930E9426060F90AF
:104E90000F908091850286950C949A0608958091D2
:104EA000850280FF14C08E7F809385020E94472276
:104EB0008091280280FF08C089E598E09F938F9336
:104EC0000E9426060F900F9080E00C949A06089599
:104ED000CF93C0918502C1708091280280FF0CC0E1
:104EE0001F92CF938EE798E09F938F930E942606A0
:104EF0000F900F900F900F90CC2319F0CF910C943E
:104F00004F27CF910C942D2790918502892F86955C
:104F10008F5F8F779170843028F4880F892B80936E
:104F2000850202C090938502809185028E7F91E078
:104F300009F490E08091850290FB80F980938502CE
:104F40000E9447228091280280FF0FC08091850235
:104F500086951F928F9385E498E09F938F930E948C
:104F600026060F900F900F900F90809185028695E6
:104F70000C949A06843008F083E0880F90918502A3
:104F80009170892B809385028E7F91E009F490E0E7
:104F90008091850290FB80F9809385020E944722D0
:104FA0008091850286950C949A0680913F0208951F
:104FB0009FB7F894109236029FBF90918A02943066
:104FC00009F057C09091E9009F703091EC00232FB9
:104FD000217030FD20E8922B23E02093E9002091FE
:104FE000EB0020FF43C02091EE0027FF3FC020913F
:104FF0003402222321F02091E80025FF37C01092CF
:10500000340226E03091E80035FD15C030918A0267
:10501000343061F53091EB0035FD28C0215021F48A
:1050200081E08093340222C0EFE9FFE03197F1F78D
:1050300000C00000E7CF8093F1008091E80085FD7B
:105040000AC08091E80080FFFCCF8091E8008E7755
:105050008093E80006C08FB7F89421E020933602D1
:105060008FBF9F709093E90080E008959F709093A8
:10507000E9008FEF08950F931F93CF93DF9300D034
:105080001F92CDB7DEB78C010E94F82A823011F052
:10509000843021F584E089831B830A8382E0809336
:1050A000E9008FEF9091E800815095FD06C095EDE5
:1050B0009A95F1F700008111F5CF8091E80085FF06
:1050C0000DC040E050E063E070E0CE0101960E9428
:1050D000152B8091E8008E778093E8000F900F9059
:1050E0000F90DF91CF911F910F910895CF93DF9390
:1050F00000D01F92CDB7DEB720918A02243031F55F
:1051000023E02983805891099B838A8382E08093DE
:10511000E9008FEF9091E800815095FD06C095ED74
:105120009A95F1F700008111F5CF8091E80085FF95
:105130000DC040E050E063E070E0CE0101960E94B7
:10514000152B8091E8008E778093E8000F900F90E8
:105150000F90DF91CF910895CF93DF93EC010E94E0
:10516000F82A823011F08430F9F482E08093E9006B
:105170009FEF8091E800915085FD06C085ED8A95EE
:10518000F1F700009111F5CF8091E80085FF0CC088
:1051900040E050E066E070E0CE010E94152B809167
:1051A000E8008E778093E800DF91CF910895CF9348
:1051B000DF93EC010E94F82A823011F0843039F537
:1051C00081E08093E9008FEF9091E800815095FD98
:1051D00006C095ED9A95F1F700008111F5CF809109
:1051E000E80085FF14C040E050E068E070E0CE01C8
:1051F0000E94152B8091E8008E778093E80088E06C
:10520000FE01A7E3B2E001900D928A95E1F7DF91EC
:10521000CF91089589EE98E00E948D0580918902D2
:10522000811109C00E94AA2C0E94072D8091E200E2
:1052300084608093E200089585EE98E00E948D05D9
:1052400010928902089581EE98E00C948D058DED01
:1052500098E00C948D0589ED98E00E948D050C94E2
:105260003923209135022F5F822F62E30E94C02FE5
:10527000992319F0209335020895109235028091F8
:105280003602882371F180918A02843041F5809141
:10529000E9008F702091EC00922F917020FD90E832
:1052A000892B93E09093E9009091EB0090FF14C05C
:1052B0009091EE0097FF10C09091E80095FF03C019
:1052C0001092F100F9CF9091E80090FF05C0909105
:1052D000E8009E779093E8008F708093E900109229
:1052E0003602089542E061EC81E00E94242C42E203
:1052F00061EC82E00E94242C42E261EC83E00C9499
:10530000242C80918C02833009F460C030F4813009
:1053100071F0823009F499C008958A3009F485C08B
:105320008B3009F46BC0893009F0A7C020C0809190
:105330008B02813A09F0A1C08091E800877F8093B9
:10534000E80080918F0290919002892B21F468E00F
:1053500087E392E003C060E080E090E070E00E94AC
:10536000602B8091E8008B778093E800089580910E
:105370008B02813209F081C080918F02909190025E
:10538000029708F07AC08091E800877F8093E80058
:105390008091E80082FD05C080918A028111F8CFDA
:1053A0006CC02091F3008091F20090E0922B029764
:1053B00029F48091F1008B7F813021F48091F100FC
:1053C00080933F028091E8008B7753C080918B02DD
:1053D000813A09F052C080918F0290919002892BFE
:1053E00009F04BC08091E800877F8093E8008091AE
:1053F000E80080FFFCCF8091220136C080918B02B3
:105400008132D9F580918F0290919002892BA9F574
:105410008091E800877F8093E8000E94592C80915A
:105420008D02809322010C94871B80918B02813224
:1054300021F58091E800877F8093E8000E94592C35
:1054400080918E0280934002089580918B02813A70
:10545000A1F48091E800877F8093E8008091E800C4
:1054600080FFFCCF809140028093F1008091E800A2
:105470008E778093E8000C94592C089584B7877F29
:1054800084BF0FB6F894A8958091600088618093DE
:105490006000109260000FBE80E88093610010925F
:1054A00061000E94E4150E94AA2C0E94072D8091A1
:1054B000E20084608093E20088ED97E20E94EC2194
:1054C00078940E94952F0E94EC1588E191E00E944B
:1054D000421588EC98E00E948D0580918A02853003
:1054E00089F484EC98E00E948D050E94EC22809162
:1054F0008802882391F30E942123882371F30E945C
:10550000FF2AEBCF0E9420160E94C513E6CF0C9411
:10551000892A292F332723303105C9F064F421303B
:10552000310581F02230310509F049C08BE590E06A
:105530002BE139E048C02132310521F12232310519
:1055400071F13DC082E190E026E739E03CC0992747
:105550008130910571F02CF4892B89F5E7E1F9E0B0
:105560000DC08230910541F0039749F5EDEEF8E06A
:1055700005C0E5E0F9E002C0E3EFF8E0849190E0D7
:105580009F0121C063307105D0F4660F771FFB01C6
:10559000EA59FE4F2081318189E090E014C06330E8
:1055A000710568F4FB01EE0FFF1FE05AFE4F2081EA
:1055B0003181FB01E35AFE4F808190E004C080E01E
:1055C00090E020E030E0FA013183208308950895CF
:1055D000CF93C82F0E94E72AC0934102CF9108952C
:1055E00080918A02843011F081E0089582E008956C
:1055F00080914102811102C00C94F02A089580E14B
:1056000089BD82E189BD09B400FEFDCF8091D8003B
:105610008F7D8093D8008091E00082608093E000CD
:105620008091E00081FDFCCF0895CF92DF92EF9250
:10563000FF920F931F93CF93DF93EC018B016A01CD
:105640000E94782C811133C0C114D10439F0F601C5
:1056500080819181081B190BC80FD91FE12CF12CF7
:105660000115110519F18091E80085FD16C08091A2
:10567000E8008E778093E800C114D10449F0F60168
:1056800080819181E80EF91EF182E08285E00FC0F1
:105690000E94782C882321F30AC089918093F1001D
:1056A00001501109FFEFEF1AFF0ADACF80E0DF9116
:1056B000CF911F910F91FF90EF90DF90CF900895C1
:1056C00020919102309192022617370748F0611518
:1056D000710539F42091E8002E772093E80001C08D
:1056E000B90140E061157105A9F120918A022223D8
:1056F00009F443C0253009F442C02091E80023FD9D
:1057000040C02091E80022FD32C02091E80020FF37
:10571000E9CF4091F3002091F20030E0342BFC01FE
:10572000CF016115710559F02830310540F48191A0
:105730008093F100615071092F5F3F4FF1CF41E03D
:105740002830310509F040E02091E8002E772093C1
:10575000E800C8CF4111C9CF0AC080918A028823CE
:1057600061F0853061F08091E80083FD0AC080918E
:10577000E80082FFF2CF80E0089582E0089583E0A0
:10578000089581E0089520919102309192022617A8
:10579000370748F06115710539F42091E8002E773C
:1057A0002093E80001C0B901FC0120E061157105FA
:1057B00091F180918A02882309F440C0853009F470
:1057C0003FC08091E80083FD3DC08091E80082FDEC
:1057D0002FC08091E80080FFE9CF2091F3008091F5
:1057E000F20090E0922B6115710559F08830910517
:1057F00040F424912093F100319661507109019693
:10580000F2CF21E0089709F020E08091E8008E7740
:105810008093E800CBCF2111CCCF0AC080918A02BF
:10582000882361F0853061F08091E80083FD0AC033
:105830008091E80082FFF2CF80E0089582E0089531
:1058400083E0089581E00895982F973058F590935C
:10585000E900981739F07091EC002091ED0050911B
:10586000F00003C0242F762F50E021FF19C03091A3
:10587000EB003E7F3093EB003091ED003D7F3093A5
:10588000ED003091EB0031603093EB007093EC0051
:105890002093ED005093F0002091EE0027FF07C009
:1058A0009F5FD3CF8F708093E90081E0089580E0FF
:1058B000089580918B0287FF11C08091E80082FDDE
:1058C00005C080918A028111F8CF11C08091E80053
:1058D0008B770BC080918A02882349F08091E80081
:1058E00080FFF8CF8091E8008E778093E8000895DC
:1058F0002091E4003091E50095E64091EC00842F82
:10590000817040FF22C08091E80080FD1CC0809122
:105910008A02882391F0853091F08091EB0085FD1B
:1059200010C04091E4005091E5004217530729F35D
:105930009A01915011F784E0089582E0089583E080
:10594000089581E0089580E008954091E80042FFC5
:10595000DECF08950E94182D0E94202DE0EEF0E089
:10596000808181608083E8EDF0E080818F778083A3
:1059700019BCA7EDB0E08C918E7F8C9380818F7ED7
:1059800080831092890208950F931F93CF93DF9322
:105990000E94182D0E94202DC8EDD0E088818F77BD
:1059A000888388818068888388818F7D888319BCFB
:1059B00010928A0210928602109288021092870238
:1059C00000EE10E0F80180818B7F80838881816008
:1059D000888342E060E080E00E94242CE1EEF0E069
:1059E00080818E7F8083E2EEF0E080818160808321
:1059F000808188608083F80180818E7F80838881A8
:105A000080618883DF91CF911F910F910895E8ED18
:105A1000F0E080818F7E8083E7EDF0E0808181601F
:105A2000808384E082BF81E0809389020C94C42C3F
:105A3000E8EDF0E080818E7F80831092E20008958F
:105A40001092DA001092E10008951F920F920FB6A3
:105A50000F9211242F933F934F935F936F937F93F4
:105A60008F939F93AF93BF93EF93FF938091E10048
:105A700082FF0BC08091E20082FF07C08091E100AD
:105A80008B7F8093E1000E9431298091DA0080FFB2
:105A90001FC08091D80080FF1BC08091DA008E7FEC
:105AA0008093DA008091D90080FF0DC080E189BD2C
:105AB00082E189BD09B400FEFDCF81E080938A02B6
:105AC0000E940A2905C019BC10928A020E941C2952
:105AD0008091E10080FF19C08091E20080FF15C035
